S01300004C616230365F4D616E646F2E737265634E
S11300000C9434000C943E000C943E000C9480003C
S11300100C943E000C94C8000C943E000C943E00DA
S11300200C943E000C943E000C943E000C943E0054
S11300300C943E000C943E000C943E000C943E0044
S11300400C943E000C943E000C943E000C943E0034
S11300500C943E000C943E000C943E000C943E0024
S11300600C943E000C943E0011241FBECFEFD8E048
S1130070DEBFCDBF0E9456000C94F8000C94000023
S11300808AB182608AB98AB18E7F8AB91092C5001A
S113009087E68093C400E2ECF0E0108286E080837F
S11300A0E1ECF0E0108288E180830895F8948AB14D
S11300B08F778AB98BB180688BB984B1807E84B91B
S11300C085B18F6185B9E8E6F0E080818160808345
S11300D0ABE6B0E08C918F618C93808184608083E7
S11300E0EDE6F0E08081806880830E94400078948F
S11300F0FFCF9091C00095FFFCCF8093C600089578
S11301001F920F920FB60F9211242F933F934F9388
S11301105F936F937F938F939F93AF93BF93EF936B
S1130120FF932FEF80E792E0215080409040E1F769
S113013000C00000189904C081E60E94790017C02D
S1130140199904C082E60E94790011C01A9904C06A
S113015083E60E9479000BC01B9904C084E60E94C8
S1130160790005C01C9903C085E60E947900FF91BF
S1130170EF91BF91AF919F918F917F916F915F911B
S11301804F913F912F910F900FBE0F901F90189594
S11301901F920F920FB60F9211242F933F934F93F8
S11301A05F936F937F938F939F93AF93BF93EF93DB
S11301B0FF932FEF80E792E0215080409040E1F7D9
S11301C000C000004F9903C086E60E947900FF91A9
S11301D0EF91BF91AF919F918F917F916F915F91BB
S11301E04F913F912F910F900FBE0F901F90189534
S10701F0F894FFCFAD
S9030000FC
