S01800004C616230335F5350495F4D61737465722E7372656384
S11300000C943B000C9458000C9458000C94580029
S11300100C9458000C9458000C9458000C945800FC
S11300200C9458000C9458000C9458000C945800EC
S11300300C9458000C9458000C9458000C945800DC
S11300400C9458000C9458000C94A3000C94580081
S11300500C9458000C9458000C9458000C945800BC
S11300600C9458000C94580023022A0231023B02DB
S113007045024F02590211241FBECFEFD8E0DEBF64
S1130080CDBF11E0A0E0B1E0EAE5FBE002C00590DD
S11300900D92AC38B107D9F721E0ACE8B1E001C06A
S11300A01D92A23AB207E1F70E94C6010C94AB0577
S11300B00C940000882324F49BB198609BB903C07E
S11300C09BB1977F9BB986FF04C09BB194609BB999
S11300D003C09BB19B7F9BB985FF04C098B190621C
S11300E098B903C098B19F7D98B984FF04C098B1B2
S11300F0906198B903C098B19F7E98B983FF04C0FA
S113010098B1986098B903C098B1977F98B982FF65
S113011004C098B1946098B903C098B19B7F98B912
S113012081FF04C098B1926098B903C098B19D7FD3
S113013098B980FF04C088B1816088B9089588B1F6
S11301408E7F88B908951F920F920FB60F921124D3
S11301501F932F933F934F935F936F937F938F934B
S11301609F93AF93BF93CF93DF93EF93FF938091CC
S1130170C600813309F04CC08091900180938E01B8
S113018090918F0190938D011F928F9380E091E065
S11301909F938F931F9210E11F93C2E9D1E0DF93E5
S11301A0CF930E94B302CE010E949C028FE19EE491
S11301B00197F1F700C000008AE00E9495028DE0EB
S11301C00E94950280918D011F928F9389E091E0A6
S11301D09F938F931F921F93DF93CF930E94B30239
S11301E0CE010E949C028FE19EE40197F1F700C0CA
S11301F000008AE00E9495028DE00E9495028DB76E
S11302009EB740960FB6F8949EBF0FBE8DBF82C0B6
S1130210823371F482E191E00E949C028AE00E94A0
S113022095028DE00E94950282E380938C0172C056
S11302308B3211F08D3201F590918C019233E1F4FF
S11302408B3251F4809191018F3F89F0809191011B
S11302508F5F809391010BC08D3249F4809191019D
S1130260882329F08091910181508093910180919C
S113027091010E945A004EC0803709F04BC0809112
S1130280900180938E0190918F0190938D011F9224
S11302908F9384E391E09F938F931F9210E11F93B8
S11302A0C2E9D1E0DF93CF930E94B302CE010E9452
S11302B09C028FE19EE40197F1F700C000008AE000
S11302C00E9495028DE00E94950280918D011F92FB
S11302D08F938AE391E09F938F931F921F93DF93F1
S11302E0CF930E94B302CE010E949C028FE19EE450
S11302F00197F1F700C000008AE00E9495028DE0AA
S11303000E9495028DB79EB740960FB6F8949EBF93
S11303100FBE8DBFFF91EF91DF91CF91BF91AF9150
S11303209F918F917F916F915F914F913F912F9109
S11303301F910F900FBE0F901F90189580E491E0CD
S11303400E949C028AE00E9495028DE00E94950220
S11303508AE00E94950282E591E00E949C028AE074
S11303600E9495028DE00E9495028AE00E94950207
S113037089E691E00E949C028AE00E9495028DE049
S11303800E9495028AE00E9495020895F89487B12C
S11303908F6387B98AB18C608AB988B1807C88B947
S11303A08AB1837F8AB920E040E060E083E50E945F
S11303B00B020E947A020E949E01789485B18B7F81
S11303C085B983E60E9473020E94750280939001AE
S11303D02FEF89EF90E0215080409040E1F700C07A
S11303E0000085B1846085B985B18B7F85B984E6C9
S11303F00E9473020E94750280938F012FEF89EF90
S113040090E0215080409040E1F700C0000085B1A9
S1130410846085B9D3CFE82F84FF55C084B18C6242
S113042084B984B18F7E84B98CB580618CBDE7704A
S11304308E2F90E08730910508F04EC0FC01EC5CF3
S1130440FF4F0C94AD028CB58C7F8CBD8DB5816053
S11304508DBD42C08CB58C7F8CBD8DB58E7F8DBD1E
S11304603BC08CB581608CBD8CB58D7F8CBD8DB54A
S113047081608DBD31C08CB581608CBD8CB58D7FA4
S11304808CBD8DB58E7F8DBD27C08CB58E7F8CBD08
S11304908CB582608CBD8DB581608DBD1DC08CB561
S11304A08E7F8CBD8CB582608CBD8DB58E7F8DBDED
S11304B013C08CB581608CBD8CB582608CBD8DB54C
S11304C08E7F8DBD09C084B1806184B984B1837D80
S11304D084B98CB58F7E8CBD8CB5462B242B282BF0
S11304E020642CBD08958EBD08950DB407FEFDCF84
S11304F08EB508958AB18E7F8AB98AB182608AB92D
S11305001092C000E1ECF0E0108280818869808361
S1130510E2ECF0E0108280818660808387E690E0E0
S11305209093C5008093C40008959091C00095FFF6
S1130530FCCF8093C6000895AC0120E007C09091E1
S1130540C00095FFFCCF3093C6002F5FFA01E20F85
S1130550F11D30813111F3CF0895EE0FFF1F059087
S1130560F491E02D0994AEE0B0E0E9EBF2E00C94F4
S113057082050D891E898F89988D26E02C831A8324
S1130580098397FF02C080E090E801979E838D83E2
S1130590AE01455E5F4F698D7A8DCE0101960E9452
S11305A0E3024D815E8157FD0AC02F8138854217D1
S11305B053070CF49A01F801E20FF31F10822E96F0
S11305C0E4E00C949E05ABE0B0E0E9EEF2E00C94BC
S11305D074056C017B018A01FC01178216828381F8
S11305E081FFCCC1CE0101963C01F6019381F70154
S11305F093FD859193FF81917F01882309F4BAC10A
S1130600853239F493FD859193FF81917F01853281
S113061029F4B60190E00E94DA04E7CF912C212C52
S1130620312CFFE1F315D8F08B3279F038F48032B5
S113063079F08332A1F4232D20611DC08D3261F045
S1130640803369F4232D216016C0832D8260382EF7
S1130650E32DE4603E2E2AC0F32DF8601DC037FC64
S11306602DC020ED280F2A3040F08E32B9F436FC2C
S113067081C1232D2064322E19C036FE06C08AE0C3
S1130680989E200D1124922E11C0EAE02E9E200D7A
S11306901124222EF32DF0623F2E08C08C3621F453
S11306A0832D8068382E02C0883641F4F70193FD0B
S11306B0859193FF81917F018111B3CF982F9F7D05
S11306C09554933028F40C5F1F4F9FE399830DC01A
S11306D0833631F0833771F0833509F059C021C076
S11306E0F801808189830E5F1F4F88248394912CA5
S11306F0530113C02801F2E04F0E511CF801A080F1
S1130700B18036FE03C0692D70E002C06FEF7FEF49
S1130710C5010E94CF044C018201F32DFF773F2EC7
S113072016C0280122E0420E511CF801A080B180BD
S113073036FE03C0692D70E002C06FEF7FEFC50184
S11307400E94C4044C01F32DF0683F2E820133FC57
S11307501BC0822D90E088169906B0F4B60180E2A1
S113076090E00E94DA042A94F4CFF50137FC8591D5
S113077037FE81915F01B60190E00E94DA042110F6
S11307802A9421E0821A91088114910471F7E8C037
S1130790843611F0893641F5F80137FE07C06081CF
S11307A07181828193810C5F1F4F08C060817181C8
S11307B0072E000C880B990B0E5F1F4FF32DFF764D
S11307C03F2E97FF09C090958095709561957F4F56
S11307D08F4F9F4FF0683F2E2AE030E0A3010E9424
S11307E01605882E861845C0853731F4232D2F7EB3
S11307F0B22E2AE030E025C0932D997FB92E8F3692
S1130800C1F018F4883579F0B5C0803719F088370D
S113081021F0B0C0E92FE061BE2EB4FE0DC0FB2D67
S1130820F460BF2E09C034FE0AC0292F2660B22E00
S113083006C028E030E005C020E130E002C020E13D
S113084032E0F801B7FE07C0608171818281938133
S11308500C5F1F4F06C06081718180E090E00E5FE5
S11308601F4FA3010E941605882E8618FB2DFF77C3
S11308703F2E36FE0DC0232D2E7FA22E891458F450
S113088034FE0BC032FC09C0832D8E7EA82E05C019
S1130890B82CA32C03C0B82C01C0B92CA4FE0FC0E3
S11308A0FE01E80DF11D8081803321F49A2D997E9B
S11308B0A92E09C0A2FE06C0B394B39404C08A2D25
S11308C0867809F0B394A3FC11C0A0FE06C0B2144C
S11308D088F4280C922C9B180EC0B21460F4B60154
S11308E080E290E00E94DA04B394F7CFB21418F4D3
S11308F02B1802C0982C212CA4FE10C0B60180E352
S113090090E00E94DA04A2FE17C0A1FC03C088E7AD
S113091090E002C088E590E0B6010CC08A2D86788C
S113092059F0A1FE02C08BE201C080E2A7FC8DE277
S1130930B60190E00E94DA04891438F4B60180E329
S113094090E00E94DA049A94F7CF8A94F301E80DB8
S1130950F11D8081B60190E00E94DA048110F5CF88
S1130960222009F442CEB60180E290E00E94DA042B
S11309702A94F6CFF6018681978102C08FEF9FEF0C
S11309802B96E2E10C949005FC01059061507040B7
S11309900110D8F7809590958E0F9F1F0895FC0144
S11309A06150704001900110D8F7809590958E0F9A
S11309B09F1F08950F931F93CF93DF93FB01238110
S11309C021FD03C08FEF9FEF2CC022FF16C046818C
S11309D05781248135814217530744F4A081B181A2
S11309E09D012F5F3F4F318320838C932681378174
S11309F02F5F3F4F3783268314C08B01EC01FB012B
S1130A000084F185E02D0995892BE1F6D80116962D
S1130A108D919C911797019617969C938E93169798
S1130A20CE01DF91CF911F910F910895FA01AA276A
S1130A30283051F1203181F1E8946F936E7F6E5F1D
S1130A407F4F8F4F9F4FAF4FB1E03ED0B4E03CD0CB
S1130A50670F781F891F9A1FA11D680F791F8A1FAE
S1130A60911DA11D6A0F711D811D911DA11D20D015
S1130A7009F468943F912AE0269F11243019305DCF
S1130A803193DEF6CF010895462F4770405D4193C0
S1130A90B3E00FD0C9F7F6CF462F4F70405D4A330D
S1130AA018F0495D31FD4052419302D0A9F7EACFD5
S1130AB0B4E0A6959795879577956795BA95C9F704
S1130AC000976105710508959B01AC010A2E0694F7
S1130AD05795479537952795BA95C9F7620F731FB0
S1130AE0841F951FA01D08952F923F924F925F92ED
S1130AF06F927F928F929F92AF92BF92CF92DF922A
S1130B00EF92FF920F931F93CF93DF93CDB7DEB78E
S1130B10CA1BDB0B0FB6F894DEBF0FBECDBF099422
S1130B202A88398848885F846E847D848C849B8479
S1130B30AA84B984C884DF80EE80FD800C811B8187
S1130B40AA81B981CE0FD11D0FB6F894DEBF0FBEB6
S10D0B50CDBFED010895F894FFCF26
S1130B5A504F54313A20256400504F54323A2025DC
S1130B6A6400436F6E7461646F7220646520496E19
S1130B7A6372656D656E746F2F44656372656D6526
S1130B8A6E746F0050313A25640050323A2564007D
S1130B9A456C69676520756E61206F7063696F6E55
S1130BAA3A00312E204C65657220506F74656E636D
S1130BBA696F6D6574726F7300322E20496E6372A9
S1130BCA656D656E746F2F44656372656D656E74C9
S10F0BDA6F20436F6E7461646F72000042
S9030000FC
