:100000000C9434000C9446000C9446000C9446006A
:100010000C9446000C9446000C9446000C94460048
:100020000C9446000C9446000C9446000C94460038
:100030000C9446000C9446000C9446000C94460028
:100040000C9446000C9446000C9446000C94460018
:100050000C9446000C94AC000C9446000C944600A2
:100060000C94C5000C94460011241FBECFEFD8E0BD
:10007000DEBFCDBF21E0A0E0B1E001C01D92A33002
:10008000B207E1F70E9476000C940E010C94000078
:10009000ECE7F0E0108280818064808380818F773C
:1000A0008083808180628083EAE7F0E01082808133
:1000B000806880838081886080838081876080837E
:1000C000EEE7F0E0808181608083EFE7F0E08081FF
:1000D00082608083089597B19F7C97B9880F816073
:1000E0008093BA0085E48093BC000895F89417B813
:1000F0008AB184608AB98BB18B7F8BB984B18160FE
:1001000084B985B18E7F85B90E94480082E20E9441
:100110006B0078948FE39CE90197F1F700C0000031
:10012000EAE7F0E0808180648083809100018A3F6B
:1001300020F48BB184608BB903C08BB18B7F8BB9FA
:10014000809102018C3120F085B1816085B9E2CFC8
:1001500085B18E7F85B9DECF1F920F920FB60F92B9
:1001600011248F93EF93FF93809179008093000186
:10017000EAE7F0E0808180618083FF91EF918F91C9
:100180000F900FBE0F901F9018951F920F920FB6F1
:100190000F9211248F93EF93FF938091B9008C7F7E
:1001A000883AF9F038F4803761F0803881F0803691
:1001B00041F507C0803CF9F0883CE9F0883B09F53F
:1001C00010C0ECEBF0E08081806880831FC08091DC
:1001D000BB0080930201ECEBF0E0808180688083BB
:1001E00015C0809100018093BB00ECEBF0E08081B2
:1001F000856C80830BC0ECEBF0E08081846C8083A5
:1002000005C0ECEBF0E0808180698083FF91EF9185
:100210008F910F900FBE0F901F901895F894FFCFFD
:00000001FF
