:100000000C9434000C9446000C9446000C9446006A
:100010000C9446000C9446000C9446000C94460048
:100020000C9446000C9446000C9446000C94460038
:100030000C9446000C9446000C9446000C94460028
:100040000C9446000C9446000C9446000C94460018
:100050000C9446000C9446000C9446000C94460008
:100060000C9453000C94460011241FBECFEFD8E02F
:10007000DEBFCDBF21E0A0E0B1E001C01D92A53000
:10008000B207E1F70E9423010C9430030C940000A6
:1000900097B19F7C97B9880F81608093BA0085E4FF
:1000A0008093BC0008951F920F920FB60F921124F7
:1000B0008F939F93EF93FF938091B9008C7F80394A
:1000C000C9F038F4803781F08038A1F0803671F5BE
:1000D0000BC0883BC9F018F4883AB1F027C0803CC7
:1000E000F9F0883CE9F022C0ECEBF0E08081806818
:1000F000808321C08091BB0080930401ECEBF0E091
:1001000080818068808317C08091020190910301F3
:100110008093BB00ECEBF0E08081856C80830BC0AA
:10012000ECEBF0E08081846C808305C0ECEBF0E0C8
:10013000808180698083FF91EF919F918F910F90D3
:100140000FBE0F901F90189584B18F6084B90895E9
:1001500040E050E046C06130710509F521E025B965
:10016000EFE3FFE13197F1F700C0000022E025B98D
:10017000EFE3FFE13197F1F700C0000024E025B97B
:10018000EFE3FFE13197F1F700C0000028E025B967
:10019000EFE3FFE13197F1F700C0000020C028E055
:1001A00025B9EFE3FFE13197F1F700C0000024E04B
:1001B00025B9EFE3FFE13197F1F700C0000022E03D
:1001C00025B9EFE3FFE13197F1F700C0000021E02E
:1001D00025B9EFE3FFE13197F1F700C000004F5F71
:1001E0005F4F9C01992314F4295F3F4F3595279564
:1001F0003595279535952795421753070CF4ABCFC6
:100200000895CF93DF93992334F4919581959109C3
:10021000C0E0D0E002C0C1E0D0E0BC01990F880B83
:10022000990B0E94370221E63BE046E351E40E942D
:10023000C3020E94FF01DC01CB01BE010E94A800A5
:10024000DF91CF910895F8948AB188608AB98AB114
:100250008B7F8AB98BB1837F8BB910928000E1E8E4
:10026000F0E080818260808380E20E9448000E94EA
:10027000A40078948BB188608BB925E32A95F1F7B7
:1002800000008BB1877F8BB94A9BFECF109285000F
:10029000109284004A99FECF60918400709185008D
:1002A00080E090E00E94350220E030E040E05FE333
:1002B0000E94C3020E940602709301016093000134
:1002C000609100017091010180E090E00E94350290
:1002D00023E333E349E652E40E948D010E940602C3
:1002E00070930301609302018091020190910301D8
:1002F000099708F0BFCF8AE590E00E9401018FEFD7
:1003000093E224EF815090402040E1F700C00000CC
:100310008EE79FEF0E940101ADCF0E94A1010C94D6
:1003200089020E94820258F00E947B0240F029F468
:100330005F3F29F00C94720251110C94BD020C9491
:1003400078020E949A0268F39923B1F3552391F33E
:10035000951B550BBB27AA2762177307840738F034
:100360009F5F5F4F220F331F441FAA1FA9F335D091
:100370000E2E3AF0E0E832D091505040E695001C45
:10038000CAF72BD0FE2F29D0660F771F881FBB1FFF
:10039000261737074807AB07B0E809F0BB0B802DDD
:1003A000BF01FF2793585F4F3AF09E3F510578F009
:1003B0000C9472020C94BD025F3FE4F3983ED4F3B8
:1003C000869577956795B795F7959F5FC9F7880FDD
:1003D000911D9695879597F90895E1E0660F771F2F
:1003E000881FBB1F621773078407BA0720F0621BC0
:1003F000730B840BBA0BEE1F88F7E09508950E94EB
:1004000006026894B1110C94BD0208950E94A202E4
:1004100088F09F5798F0B92F9927B751B0F0E1F0C5
:10042000660F771F881F991F1AF0BA95C9F714C075
:10043000B13091F00E94BC02B1E008950C94BC026E
:10044000672F782F8827B85F39F0B93FCCF38695AE
:1004500077956795B395D9F73EF49095809570950B
:1004600061957F4F8F4F9F4F0895E89409C097FB88
:100470003EF490958095709561957F4F8F4F9F4F7B
:100480009923A9F0F92F96E9BB279395F6958795BF
:1004900077956795B795F111F8CFFAF4BB0F11F482
:1004A00060FF1BC06F5F7F4F8F4F9F4F16C0882329
:1004B00011F096E911C0772321F09EE8872F762F5F
:1004C00005C0662371F096E8862F70E060E02AF0A0
:1004D0009A95660F771F881FDAF7880F969587958C
:1004E00097F9089597F99F6780E870E060E00895B4
:1004F0009FEF80EC089500240A941616170618063C
:100500000906089500240A94121613061406050617
:100510000895092E0394000C11F4882352F0BB0FA8
:1005200040F4BF2B11F460FF04C06F5F7F4F8F4F0B
:100530009F4F089557FD9058440F551F59F05F3F46
:1005400071F04795880F97FB991F61F09F3F79F0F5
:1005500087950895121613061406551FF2CF469577
:10056000F1DF08C0161617061806991FF1CF8695F9
:100570007105610508940895E894BB2766277727DD
:10058000CB0197F908950E94D6020C9489020E942B
:100590007B0238F00E94820220F0952311F00C9427
:1005A00072020C94780211240C94BD020E949A02EB
:1005B00070F3959FC1F3950F50E0551F629FF001B6
:1005C000729FBB27F00DB11D639FAA27F00DB11DCF
:1005D000AA1F649F6627B00DA11D661F829F222758
:1005E000B00DA11D621F739FB00DA11D621F839FDF
:1005F000A00D611D221F749F3327A00D611D231FB5
:10060000849F600D211D822F762F6A2F11249F5702
:1006100050409AF0F1F088234AF0EE0FFF1FBB1F05
:10062000661F771F881F91505040A9F79E3F5105C4
:1006300080F00C9472020C94BD025F3FE4F3983E8C
:10064000D4F3869577956795B795F795E7959F5F6E
:10065000C1F7FE2B880F911D9695879597F9089500
:04066000F894FFCF3C
:00000001FF
