S0290000454432202D204C61623031202D20436F6E7461646F7244657363656E64656E74652E737265635A
S11300000C9434000C9446000C9446000C946C013F
S11300100C942F010C9446000C9446000C9446005A
S11300200C9446000C9446000C9446000C94460034
S11300300C9446000C9446000C9446000C94460024
S11300400C9446000C9446000C9446000C94460014
S11300500C9446000C9446000C9446000C94460004
S11300600C9446000C94460011241FBECFEFD8E038
S1130070DEBFCDBF21E0A0E0B1E001C01D92A330FE
S1130080B207E1F70E9448000C948A010C94000026
S1130090F89484B18F6084B987B18F6087B98FEF8A
S11300A08AB987B18F7D87B988B1806288B987B1F1
S11300B08F7E87B988B1806188B984B18F7E84B915
S11300C085B1806185B9E8E6F0E080818260808353
S11300D0ACE6B0E08C9180638C93808181608083F6
S11300E0EBE6F0E080818061808385B18E7F85B905
S11300F088B18E7F88B98DE68BB9789485B18E7F6F
S113010085B988B18E7F88B980910201813009F068
S11301104FC0109201011092000185B18E7F85B904
S113012088B18E7F88B98DE68BB92FEF83ED90E38C
S1130130215080409040E1F700C0000086E68BB972
S11301402FEF83ED90E3215080409040E1F700C011
S113015000008FE48BB92FEF83ED90E321508040B2
S11301609040E1F700C000008BE58BB92FEF83EDE1
S113017090E3215080409040E1F700C0000086E009
S11301808BB92FEF83ED90E3215080409040E1F74D
S113019000C000008FE38BB92FEF83ED90E3215073
S11301A080409040E1F700C0000082E080930201AB
S11301B088B18E7F88B980910001823069F018F48B
S11301C0813031F020C0833059F0843069F01BC095
S11301D088B1886088B917C088B1846088B913C0B1
S11301E088B1826088B90FC088B1816088B98BB149
S11301F08BB98FE39FE10197F1F700C000008BE515
S11302008BB91092010185B18E7F85B9809101016E
S1130210823069F018F4813031F070CF833059F0B6
S1130220843069F06BCF85B1816085B967CF85B1C2
S1130230826085B963CF85B1846085B95FCF85B1AC
S1130240886085B98BB18BB98FE39FE10197F1F792
S113025000C0000086E08BB9109200014FCF1F92BE
S11302600F920FB60F9211248F9335991DC0809170
S11302700201811104C081E08093020115C08091C4
S11302800201813021F482E0809302010DC080914B
S11302900201823049F481E08093020185B1807FBC
S11302A085B988B1807F88B980910201823071F468
S11302B034990CC080910001843020F480910001B5
S11302C08F5F02C080910001809300018F910F9095
S11302D00FBE0F901F9018951F920F920FB60F929A
S11302E011248F9380910201823071F41C990CC007
S11302F080910101843020F4809101018F5F02C05C
S113030080910101809301018F910F900FBE0F9096
S10B03101F901895F894FFCF2B
S9030000FC
