S01200004932435F4D61737465722E7372656389
S11300000C9434000C9451000C9451000C94510045
S11300100C9451000C9451000C9451000C94510018
S11300200C9451000C9451000C9451000C94510008
S11300300C9451000C9451000C9451000C945100F8
S11300400C9451000C9451000C9451000C945100E8
S11300500C9451000C9451000C9451000C945100D8
S11300600C9451000C94510011241FBECFEFD8E022
S1130070DEBFCDBF11E0A0E0B1E0E6EBFAE002C0E4
S113008005900D92A431B107D9F721E0A4E1B1E0C4
S113009001C01D92A632B207E1F70E94D3010C946D
S11300A059050C940000CF93C82F9A01AB0187B176
S11300B08F7C87B960E074E284EF90E00E943F0295
S11300C0CA01B90160517109810991092C2F30E0ED
S11300D0220F331F032E000C440B550B0E943F02CA
S11300E02093B800C43079F018F4C13031F023C043
S11300F0C03191F0C034C9F01EC0E9EBF0E080815A
S11301008C7F80831DC0E9EBF0E080818D7F80834C
S113011080818160808314C0E9EBF0E080818E7F70
S113012080838081826080830BC0E9EBF0E0808172
S11301308D6F808305C0E9EBF0E080818C7F808344
S113014084E08093BC00CF91089584E98093BC003F
S11301508091BC0084FDFCCF0895CF93DF9394EA93
S11301609093BC009091BC009923E4F79091B9005E
S1130170987F9830E1F590E0880F991F8160809313
S1130180BB0084E88093BC008091BC008823E4F722
S1130190EB018091B900887F883421F40E94A50086
S11301A081E026C08091B900887F803421F00E94CC
S11301B0A50081E01DC084E88093BC008091BC0050
S11301C08823E4F78091B900887F883549F08091CD
S11301D0B900887F803521F00E94A50081E008C025
S11301E08091BB0088830E94A500888101C081E0C2
S11301F0DF91CF91089580FF04C09BB191609BB9BA
S113020003C09BB19E7F9BB981FF04C09BB19260E8
S11302109BB903C09BB19D7F9BB982FF04C09BB176
S113022094609BB903C09BB19B7F9BB983FF04C0BF
S11302309BB198609BB903C09BB1977F9BB984FF26
S113024004C09BB190619BB903C09BB19F7E9BB9D5
S113025085FF04C09BB190629BB903C09BB19F7D95
S11302609BB986FF04C09BB190649BB903C09BB14A
S11302709F7B9BB9882324F48BB180688BB9089544
S11302808BB18F778BB9089595B19E7F95B90E94F4
S1130290FB0085B1826085B98FE99FE00197F1F792
S11302A000C0000085B18D7F85B98FE99FE001977B
S11302B0F1F700C00000089585B18E7F85B985B13E
S11302C08D7F85B92FEF89EF90E0215080409040D9
S11302D0E1F700C0000080E30E9444018FE19EE446
S11302E00197F1F700C0000080E30E9444018FE110
S11302F09EE40197F1F700C0000080E30E944401EE
S11303008FE39CE90197F1F700C0000088E30E94A5
S113031044018CE00E94440181E00E94440186E093
S11303200E944401089581E00E94440108958111CE
S113033005C080E8860F0E9444010895813021F4AD
S113034080EC860F0E944401089595B1916095B99F
S11303500E94FB0085B1826085B98FE99FE0019717
S1130360F1F700C0000085B18D7F85B98FE99FE06A
S11303700197F1F700C0000008950F931F93CF93E6
S1130380DF938C01C0E0D0E003C00E94A501219658
S1130390F801EC0FFD1F80818111F7CFDF91CF9120
S11303A01F910F910895F8948FEF8AB984B9109230
S11303B0C1000E945C010E94930140E45DE063E09F
S11303C070E084E00E94530078948FE39CE90197E5
S11303D0F1F700C0000063E080E00E94970180E034
S11303E091E00E94BD016AE080E00E94970185E0EF
S11303F091E00E94BD0164E171E080E20E94AD00E1
S11304008093140165E171E082E20E94AD00809363
S1130410150163E081E00E949701809114011F920D
S11304208F938AE091E09F938F931F9210E11F9323
S1130430C6E1D1E0DF93CF930E946102CE010E9416
S1130440BD016AE081E00E949701809115011F922D
S11304508F938FE091E09F938F931F921F93DF936D
S1130460CF930E946102CE010E94BD018DB79EB759
S113047040960FB6F8949EBF0FBE8DBFA6CFA1E2E3
S11304801A2EAA1BBB1BFD010DC0AA1FBB1FEE1F0A
S1130490FF1FA217B307E407F50720F0A21BB30B55
S11304A0E40BF50B661F771F881F991F1A9469F7D1
S11304B060957095809590959B01AC01BD01CF012D
S11304C00895AEE0B0E0E7E6F2E00C9430050D8963
S11304D01E898F89988D26E02C831A83098397FFC0
S11304E002C080E090E801979E838D83AE01455E53
S11304F05F4F698D7A8DCE0101960E9491024D81E4
S11305005E8157FD0AC02F813885421753070CF4CA
S11305109A01F801E20FF31F10822E96E4E00C9486
S11305204C05ABE0B0E0E7E9F2E00C9422056C0185
S11305307B018A01FC0117821682838181FFCCC171
S1130540CE0101963C01F6019381F70193FD85915B
S113055093FF81917F01882309F4BAC1853239F46C
S113056093FD859193FF81917F01853229F4B60132
S113057090E00E948804E7CF912C212C312CFFE1DC
S1130580F315D8F08B3279F038F4803279F0833275
S1130590A1F4232D20611DC08D3261F0803369F4F4
S11305A0232D216016C0832D8260382EE32DE46054
S11305B03E2E2AC0F32DF8601DC037FC2DC020ED5F
S11305C0280F2A3040F08E32B9F436FC81C1232D35
S11305D02064322E19C036FE06C08AE0989E200D93
S11305E01124922E11C0EAE02E9E200D1124222EF9
S11305F0F32DF0623F2E08C08C3621F4832D8068E1
S1130600382E02C0883641F4F70193FD859193FF9B
S113061081917F018111B3CF982F9F7D95549330A1
S113062028F40C5F1F4F9FE399830DC0833631F08C
S1130630833771F0833509F059C021C0F8018081F6
S113064089830E5F1F4F88248394912C530113C018
S11306502801F2E04F0E511CF801A080B18036FE53
S113066003C0692D70E002C06FEF7FEFC5010E94E7
S11306707D044C018201F32DFF773F2E16C0280123
S113068022E0420E511CF801A080B18036FE03C066
S1130690692D70E002C06FEF7FEFC5010E94720404
S11306A04C01F32DF0683F2E820133FC1BC0822DD8
S11306B090E088169906B0F4B60180E290E00E94BA
S11306C088042A94F4CFF50137FC859137FE819193
S11306D05F01B60190E00E94880421102A9421E071
S11306E0821A91088114910471F7E8C0843611F0DC
S11306F0893641F5F80137FE07C060817181828136
S113070093810C5F1F4F08C060817181072E000C1C
S1130710880B990B0E5F1F4FF32DFF763F2E97FF2B
S113072009C090958095709561957F4F8F4F9F4F2D
S1130730F0683F2E2AE030E0A3010E94C404882E12
S1130740861845C0853731F4232D2F7EB22E2AE03A
S113075030E025C0932D997FB92E8F36C1F018F45F
S1130760883579F0B5C0803719F0883721F0B0C0EA
S1130770E92FE061BE2EB4FE0DC0FB2DF460BF2E48
S113078009C034FE0AC0292F2660B22E06C028E014
S113079030E005C020E130E002C020E132E0F801A1
S11307A0B7FE07C060817181828193810C5F1F4F06
S11307B006C06081718180E090E00E5F1F4FA3014D
S11307C00E94C404882E8618FB2DFF773F2E36FE28
S11307D00DC0232D2E7FA22E891458F434FE0BC095
S11307E032FC09C0832D8E7EA82E05C0B82CA32C04
S11307F003C0B82C01C0B92CA4FE0FC0FE01E80D43
S1130800F11D8081803321F49A2D997EA92E09C08F
S1130810A2FE06C0B394B39404C08A2D867809F06E
S1130820B394A3FC11C0A0FE06C0B21488F4280C33
S1130830922C9B180EC0B21460F4B60180E290E0D2
S11308400E948804B394F7CFB21418F42B1802C092
S1130850982C212CA4FE10C0B60180E390E00E94E5
S11308608804A2FE17C0A1FC03C088E790E002C080
S113087088E590E0B6010CC08A2D867859F0A1FE77
S113088002C08BE201C080E2A7FC8DE2B60190E0D9
S11308900E948804891438F4B60180E390E00E9431
S11308A088049A94F7CF8A94F301E80DF11D8081AE
S11308B0B60190E00E9488048110F5CF222009F44B
S11308C042CEB60180E290E00E9488042A94F6CFDA
S11308D0F6018681978102C08FEF9FEF2B96E2E1AC
S11308E00C943E05FC010590615070400110D8F74E
S11308F0809590958E0F9F1F0895FC016150704064
S113090001900110D8F7809590958E0F9F1F089540
S11309100F931F93CF93DF93FB01238121FD03C02A
S11309208FEF9FEF2CC022FF16C046815781248190
S113093035814217530744F4A081B1819D012F5F93
S11309403F4F318320838C93268137812F5F3F4F24
S11309503783268314C08B01EC01FB010084F185ED
S1130960E02D0995892BE1F6D80116968D919C917D
S11309701797019617969C938E931697CE01DF9145
S1130980CF911F910F910895FA01AA27283051F1B0
S1130990203181F1E8946F936E7F6E5F7F4F8F4FAC
S11309A09F4FAF4FB1E03ED0B4E03CD0670F781F0B
S11309B0891F9A1FA11D680F791F8A1F911DA11DF0
S11309C06A0F711D811D911DA11D20D009F4689429
S11309D03F912AE0269F11243019305D3193DEF6D1
S11309E0CF010895462F4770405D4193B3E00FD087
S11309F0C9F7F6CF462F4F70405D4A3318F0495D72
S1130A0031FD4052419302D0A9F7EACFB4E0A69554
S1130A109795879577956795BA95C9F70097610576
S1130A20710508959B01AC010A2E069457954795CC
S1130A3037952795BA95C9F7620F731F841F951FC1
S1130A40A01D08952F923F924F925F926F927F92D2
S1130A508F929F92AF92BF92CF92DF92EF92FF92CA
S1130A600F931F93CF93DF93CDB7DEB7CA1BDB0B76
S1130A700FB6F894DEBF0FBECDBF09942A8839881B
S1130A8048885F846E847D848C849B84AA84B98422
S1130A90C884DF80EE80FD800C811B81AA81B9812E
S1130AA0CE0FD11D0FB6F894DEBF0FBECDBFED0142
S1090AB00895F894FFCF45
S1130AB653313A200053323A20002530326400255F
S1070AC63033640061
S9030000FC
