:100000000C9434000C9451000C9451000C94510049
:100010000C9451000C9451000C9451000C9451001C
:100020000C9451000C9451000C9451000C9451000C
:100030000C9451000C9451000C9451000C945100FC
:100040000C9451000C9451000C947B020C945100C0
:100050000C9451000C9446020C9451000C945100E5
:100060000C9451000C94510011241FBECFEFD8E026
:10007000DEBFCDBF11E0A0E0B1E0EAE9F5E002C0EB
:1000800005900D92A032B107D9F721E0A0E2B1E0CE
:1000900001C01D92AE32B207E1F70E94EB010C9451
:1000A000CB020C940000ECE7F0E01082AEE7B0E089
:1000B0008C9181608C938C9182608C938081806222
:1000C000808380818064808380818F778083EAE76A
:1000D000F0E0808188608083808187608083808178
:1000E00080688083089580FF04C095B1986095B9B9
:1000F00003C095B1977F95B981FF04C095B1946015
:1001000095B903C095B19B7F95B982FF04C09BB19F
:1001100094609BB903C09BB19B7F9BB983FF04C0D4
:100120009BB198609BB903C09BB1977F9BB984FF3B
:1001300004C09BB190619BB903C09BB19F7E9BB9EA
:1001400085FF04C09BB190629BB903C09BB19F7DAA
:100150009BB986FF04C09BB190649BB903C09BB15F
:100160009F7B9BB9882324F48BB180688BB9089559
:100170008BB18F778BB9089595B19E7F95B90E9409
:10018000730085B1826085B98FE99FE00197F1F72F
:1001900000C0000085B18D7F85B98FE99FE0019790
:1001A000F1F700C00000089585B18E7F85B985B153
:1001B0008D7F85B92FEF89EF90E0215080409040EE
:1001C000E1F700C0000080E30E94BC008FE19EE4E4
:1001D0000197F1F700C0000080E30E94BC008FE1AE
:1001E0009EE40197F1F700C0000080E30E94BC008C
:1001F0008FE39CE90197F1F700C0000088E30E94BB
:10020000BC008CE00E94BC0081E00E94BC0086E043
:100210000E94BC00089581E00E94BC0008958111F5
:1002200005C080E8860F0E94BC000895813021F44B
:1002300080EC860F0E94BC00089595B1916095B93D
:100240000E94730085B1826085B98FE99FE00197B4
:10025000F1F700C0000085B18D7F85B98FE99FE07F
:100260000197F1F700C0000008950F931F93CF93FB
:10027000DF938C01C0E0D0E003C00E941D012196F5
:10028000F801EC0FFD1F80818111F7CFDF91CF9135
:100290001F910F910895F8948FEF8AB984B917B818
:1002A0001092C50087E68093C40088E98093C1005E
:1002B00086E08093C2000E94D4002FEF89EF90E087
:1002C000215080409040E1F700C000000E940B01E7
:1002D0000E945300EAE7F0E0808180648083789494
:1002E0000895CF93DF93FC019B01CB0164E670E09E
:1002F0000E94A302605D6083CAE0D0E0C901BE0134
:100300000E94A302282FCB01BE010E94A302805DA0
:100310008183205D22831382DF91CF910895909194
:10032000C00095FFFCCF8093C6000895CF93DF9364
:10033000EC0103C021960E948F0188818111FACFC0
:10034000DF91CF9108950E940B0162E080E00E944E
:100350000F0184E091E00E94350167E080E00E9497
:100360000F0188E091E00E9435016CE080E00E947E
:100370000F018CE091E00E9435016091250170E051
:1003800086E291E00E9471016091240170E08AE2AE
:1003900091E00E9471016091220170E080E091E0A3
:1003A0000E94710162E081E00E940F0186E291E00B
:1003B0000E94350167E081E00E940F018AE291E02E
:1003C0000E9435016CE081E00E940F0180E091E025
:1003D0000E94350108950E944B011FEFDFEFCFEF20
:1003E00080912501C8130CC080912401D81308C046
:1003F00080912201181304C080912101882361F0AB
:100400000E94A301C0912501D091240110912201E5
:1004100010922101109220016091250170E086E286
:1004200091E00E9471016091240170E08AE291E004
:100430000E9471016091220170E080E091E00E94D1
:10044000710180E191E00E94960186E291E00E94B4
:10045000960185E191E00E9496018AE291E00E9476
:1004600096018AE191E00E94960180E091E00E946D
:1004700096018AE00E948F012FEF81EE94E02150D7
:1004800080409040E1F700C00000AACF1F920F9279
:100490000FB60F9211248F93EF93FF938091230156
:1004A00081110DC0ECE7F0E08081887F808380912E
:1004B00079008093250181E0809323010CC0ECE753
:1004C000F0E08081887F81608083809179008093D3
:1004D000240110922301EAE7F0E0808180648083A8
:1004E00081E080932001FF91EF918F910F900FBEDB
:1004F0000F901F9018951F920F920FB60F92112414
:100500008F938091C6008B3251F4809122018F3FEE
:1005100089F0809122018F5F809322010BC08D3280
:1005200049F480912201882329F080912201815091
:100530008093220181E0809321018F910F900FBE63
:100540000F901F90189597FB072E16F4009407D074
:1005500077FD09D00E94B70207FC05D03EF49095C4
:1005600081959F4F0895709561957F4F0895AA1BBF
:10057000BB1B51E107C0AA1FBB1FA617B70710F08E
:10058000A61BB70B881F991F5A95A9F780959095C0
:0A059000BC01CD010895F894FFCFDF
:10059A003030300053313A0053323A0053333A0084
:1005AA0053313A200053323A200053333A200000A4
:00000001FF
