:100000000C943B000C944D000C944D000C944D004E
:100010000C944D000C944D000C944D000C944D002C
:100020000C944D000C944D000C944D000C944D001C
:100030000C944D000C944D000C944D000C944D000C
:100040000C944D000C9487000C944D000C944D00C2
:100050000C944D000C944F000C944D000C944D00EA
:100060000C944D000C944D00100117011E01280145
:1000700032013C01460111241FBECFEFD8E0DEBFA4
:10008000CDBF21E0A0E0B1E001C01D92A330B207D6
:10009000E1F70E94DB000C9468010C9400001F92B1
:1000A0000F920FB60F9211248F939F93EF93FF93AC
:1000B0008091000181110FC0ECE7F0E08081887F22
:1000C000808380917800909179008093020181E093
:1000D000809300010EC0ECE7F0E08081887F8160B2
:1000E0008083809178009091790080930101109233
:1000F0000001EAE7F0E0808180648083FF91EF9166
:100100009F918F910F900FBE0F901F9018951F9287
:100110000F920FB60F9211242F933F934F935F933B
:100120006F937F938F939F93AF93BF93CF93EF93EF
:10013000FF93CEB5C33621F4809102010E94600185
:10014000C43621F4809101010E946001FF91EF917A
:10015000CF91BF91AF919F918F917F916F915F915F
:100160004F913F912F910F900FBE0F901F901895B8
:10017000ECE7F0E0108280818064808380818F775B
:100180008083808180628083EAE7F0E01082808152
:10019000806880838081886080838081876080839D
:1001A000EEE7F0E0808181608083EFE7F0E080811E
:1001B000826080830895F89417B820E040E060E002
:1001C00080E40E94F8000E94B8008CB580688CBD65
:1001D0007894EAE7F0E08081806480832FEF81EEFD
:1001E00094E0215080409040E1F700C00000F1CF42
:1001F000E82F84FF55C084B18C6284B984B18F7EAE
:1002000084B98CB580618CBDE7708E2F90E087300B
:10021000910508F04EC0FC01EC5CFF4F0C946201AC
:100220008CB58C7F8CBD8DB581608DBD42C08CB589
:100230008C7F8CBD8DB58E7F8DBD3BC08CB58160B4
:100240008CBD8CB58D7F8CBD8DB581608DBD31C071
:100250008CB581608CBD8CB58D7F8CBD8DB58E7F4E
:100260008DBD27C08CB58E7F8CBD8CB582608CBD5A
:100270008DB581608DBD1DC08CB58E7F8CBD8CB55C
:1002800082608CBD8DB58E7F8DBD13C08CB58160B5
:100290008CBD8CB582608CBD8DB58E7F8DBD09C047
:1002A00084B1806184B984B1837D84B98CB58F7E3B
:1002B0008CBD8CB5462B242B282B20642CBD089597
:1002C0008EBD0895EE0FFF1F0590F491E02D099467
:0402D000F894FFCFD0
:00000001FF
