S01A00004932435F536C617665325F427574746F6E732E7372656372
S11300000C9434000C9446000C9446000C94770035
S11300100C9446000C9446000C9446000C94460044
S11300200C9446000C9446000C9446000C94460034
S11300300C9446000C9446000C9446000C94460024
S11300400C9446000C9446000C9446000C94460014
S11300500C9446000C9446000C9446000C94460004
S11300600C94A0000C94460011241FBECFEFD8E0DE
S1130070DEBFCDBF21E0A0E0B1E001C01D92A230FF
S1130080B207E1F70E9453000C94ED000C940000B9
S113009097B19F7C97B9880F81608093BA0085E4FB
S11300A08093BC000895F89484B18C7F84B985B1A1
S11300B0836085B98AB18F608AB98BB1807F8BB92F
S11300C01092C100EBE6F0E0808183608083E8E673
S11300D0F0E080818160808382E20E94480078940D
S11300E08FE39CE90197F1F700C00000F9CF1F925C
S11300F00F920FB60F9211248F93189B0DC080910D
S113010000018F5F809300018F3018F08FE080939F
S11301100001809100018BB9199B0CC080910001F2
S1130120815080930001811102C0109200018091DE
S113013000018BB98F910F900FBE0F901F901895EF
S11301401F920F920FB60F9211248F93EF93FF9388
S11301508091B9008C7F8039C9F038F4803781F000
S11301608038A1F0803661F50BC0883BC9F018F4E3
S1130170883AB1F025C0803CE9F0883CD9F020C031
S1130180ECEBF0E08081806880831FC08091BB002D
S113019080930101ECEBF0E080818068808315C0DE
S11301A0809100018093BB00ECEBF0E08081856CD2
S11301B080830BC0ECEBF0E08081846C808305C00D
S11301C0ECEBF0E0808180698083FF91EF918F9167
S11101D00F900FBE0F901F901895F894FFCF5C
S9030000FC
