:100000000C9434000C9446000C9446000C9446006A
:100010000C9446000C9446000C9446000C94460048
:100020000C9446000C9446000C9446000C94460038
:100030000C9446000C9446000C9446000C94460028
:100040000C9446000C9446000C9446000C94460018
:100050000C9446000C948A000C9446000C944600C4
:100060000C94A3000C94460011241FBECFEFD8E0DF
:10007000DEBFCDBF21E0A0E0B1E001C01D92A23003
:10008000B207E1F70E9476000C94F0000C94000097
:10009000ECE7F0E0108280818064808380818F773C
:1000A0008083808180628083EAE7F0E01082808133
:1000B000806880838081886080838081876080837E
:1000C000EEE7F0E0808181608083EFE7F0E08081FF
:1000D00082608083089597B19F7C97B9880F816073
:1000E0008093BA0085E48093BC000895F89417B813
:1000F0000E94480080E20E946B0078948FE39CE9A4
:100100000197F1F700C00000EAE7F0E08081806429
:100110008083F4CF1F920F920FB60F9211248F930A
:10012000EF93FF938091790080930001EAE7F0E07C
:10013000808180618083FF91EF918F910F900FBE3E
:100140000F901F9018951F920F920FB60F921124C7
:100150008F93EF93FF938091B9008C7F8039C9F022
:1001600038F4803781F08038A1F0803661F50BC01B
:10017000883BC9F018F4883AB1F025C0803CE9F01A
:10018000883CD9F020C0ECEBF0E08081806880836F
:100190001FC08091BB0080930101ECEBF0E08081F7
:1001A0008068808315C0809100018093BB00ECEBD8
:1001B000F0E08081856C80830BC0ECEBF0E0808107
:1001C000846C808305C0ECEBF0E0808180698083E3
:1001D000FF91EF918F910F900FBE0F901F90189588
:0401E000F894FFCFC1
:00000001FF
